:08000000803102288731FD2F39
:100DEA0008008731232786314D0111140800873105
:100DFA00232786314D011115080043010C08C1391A
:100E0A0020388C000800F0008731232787317008CA
:100E1A004D018C0008002030F1000B30F200273021
:100E2A008731CF2787310800F00041010F1E1E2F9E
:100E3A001F2F1A2F70084C01970008004D010F1937
:100E4A00272F282F232F11081139031D2D2F2E2F5D
:100E5A00232F0800400112147D010C147A019F010E
:100E6A00AB0126162608F3390438A6000800873194
:100E7A00232787314D0191158731232787314D016A
:100E8A000C08F0008731232787314D019112111682
:100E9A00700808004C019C151B129B161B151A168C
:100EAA009A1719309800990111307B01910004308A
:100EBA007C01C300400192121216080040019214EC
:100ECA0012157D018E140E1515307B018D0016301A
:100EDA008E0001307C01C7000230C8004D018F1717
:100EEA001008F03908389000910103308D009016EF
:100EFA000800F601932F7208F4007108F3007608CF
:100F0A007307840074080318740A8500000887317F
:100F1A00192787310130F3007308F6077208F400C5
:100F2A007108F30076087307840074080318740ABA
:100F3A0085001200031DA22FA32F802F0800400155
:100F4A0092017D018C0187316327873187314F27D1
:100F5A00873187312F278731873102278731003040
:100F6A00F1008830F20087317E27873187311027D8
:100F7A0087318631F52687310230F8004530F7008F
:100F8A00AA30890BC62FF70BC62FF80BC62FB42F22
:100F9A0080310228F6008631F62687317635FE3909
:100FAA00F60076080138873108278731F401F50100
:100FBA00EC2F74087107F3007308860087018731E4
:100FCA003C27873181000130F4070030F53D750870
:100FDA00803AF30080307302031DF52F7208740201
:100FEA00031CF82FF92FDE2F8631FC2687310800E3
:100FFA0040018731A42F483465346C346C346F3423
:10100A002034213420344934203461346D3420347E
:10101A006134203450344934433420342134203468
:02102A00003490
:020000040001F9
:08000000FF3FFF3FFF3FFF3F00
:0A000E00EC3FFF3FFF3FFF3FFF3FC5
:00000001FF
