:08000000803102288731FD2F39
:1004660082316C2282314D011114080082316C22D6
:1004760082314D011115080043010C08C13920389D
:100486008C000800F00082316C22823170084D0128
:100496008C0008002030F1000B30F2002730833149
:1004A6000A2382310800F00041010F1E5B2A5C2AF4
:1004B600572A70084C01970008007A01A6172614DF
:1004C6002618662A672A632A1E08F1001D08F0000E
:1004D60008004D010F19702A712A6C2A110811396A
:1004E600031D762A772A6C2A0800400112147D0122
:1004F6000C147A019F01AB0126162608F33904383D
:10050600A60008004C019B161B159C159A1719305E
:100516009800990111307B01910040019212080068
:1005260082316C2282314D01911582316C228231E9
:100536004D010C08F00082316C2282314D0191127E
:100546001116700808004001921412157D018E14D0
:100556000E1515307B018D0016308E0001307C01A2
:10056600C7000230C8004D018F171008F03908384F
:100576009000910103308D0090160800F800F401F8
:10058600F5017008F200F3017208F6007308F7002F
:10059600781CCE2ACF2AD32A7608F4077708F53DA9
:1005A6000130F635F70D890BD42A0310F80C7808BC
:1005B600031DDE2ADF2ACB2A7508F1007408F00035
:1005C6000800F601F92A7208F4007108F3007608AB
:1005D6007307840074080318740A850000088231C2
:1005E600562282310130F3007308F6077208F400D0
:1005F6007108F30076087307840074080318740AF8
:1006060085001200031D082B092BE62A0800F600B8
:100616008231332283317635FE39F6007608013889
:10062600823145228331F401F501272B74087107C5
:10063600F30073088600870182319322833181009B
:100646000130F4070030F53D7508803AF30080303C
:100656007302031D302B72087402031C332B342BD8
:10066600192B82313922833108004001A7006430FA
:10067600F0000030F1002708A200A3012208F200D2
:100686002308F3008331DE23833170084001A40080
:100696000A30F9000030FA000A30F0000030F100AC
:1006A6002708A200A3012208F2002308F3008331E1
:1006B600DE2383317108FC007008FB0083318A2336
:1006C600833179084001A5000A30F9000030FA00AC
:1006D6002708A200A3012208FB002308FC0083319F
:1006E6008A23833179084001A6002408303E8231EE
:1006F6005622833140012508303E8231562283310D
:1007060040012608303E82315622833108004001DE
:10071600A101FC1F8F2B902B972BFB09FC09FB0AD1
:100726000319FC0AA101A10AFA1F9A2B9B2BA02BE5
:10073600F909FA09F90A0319FA0A79087A04031970
:10074600A52BA62BCF2BA001A00AB22B0130F93581
:10075600FA0D890BAA2B0130FD007D08A007FA1FB0
:10076600B52BB62BA92B7A087C02031DBC2B790866
:100776007B02031CBF2BC02BC42B7908FB027A0813
:10078600FC3B0130FA36F90C890BC52B0130A0026F
:10079600031DCE2BCF2BB62B21080319D32BD42B1D
:1007A600D92BFB09FC09FB0A0319FC0A7C08FA0091
:1007B6007B08F9000800F601F11FE22BE32BEA2B78
:1007C600F009F109F00A0319F10AF601F60AF31F16
:1007D600ED2BEE2BF72BF209F309F20A0319F30AB4
:1007E6000130F4007408F606F701F8017008710488
:1007F6000319FE2BFF2B2E2CF501F50A0B2C0130CD
:10080600F035F10D890B032C0130F4007408F5075F
:10081600F11F0E2C0F2C022C0130F735F80D890B29
:10082600102C71087302031D1A2C70087202031C27
:100836001D2C1E2C232C7008F2027108F33B771432
:100846000130F136F00C890B242C0130F502031D22
:100856002D2C2E2C0F2C76080319322C332C382CE9
:10086600F709F809F70A0319F80A7808F100770872
:10087600F0000800400192017D018C018231A62220
:1008860084318231852284318231782284318231E9
:100896003F22843140010C160030F1008830F2000E
:1008A6008231E42284318231602284317108400130
:1008B600C7007008C6004608F0004708F100F201BC
:1008C600F301003085311825843173084001A700F3
:1008D6007208A6007108A5007008A4003D30A300A8
:1008E600C830A2000030A1000030A0008531C2252A
:1008F600843140012308BD002208BC002108BB004A
:100906002008BA008431A724843140013A08C8007F
:10091600480883313823843182314D2284310230B4
:100926004001C5004530C400A930890B982CC40B82
:10093600982CC50B982C003210304001C400440896
:100946008C064F2C80310228031040013C0D3D0DD2
:10095600C3004308031DB02CB12CBA2C0030BD00D7
:100966000030BC000030BB000030BA00172D3A083A
:10097600BE003B08BF003C08C0003D08C1001F3058
:10098600C136C00CBF0CBE0C890BC32C3E08C2007E
:10099600BC17FF30BA05FF30BB05FF30BC05003081
:1009A600BD059630C302C31FD92CDA2CF22C43089E
:1009B600803A973E0318E02CE12CE22CB12C013052
:1009C600BD36BC0CBB0CBA0C890BE32C0130BE0047
:1009D6003E08C307031DF02CF12CE22C072D203016
:1009E6004302031CF72CF82C022DB12C0130BA352A
:1009F600BB0DBC0DBD0D890BFA2C0130C30243089B
:100A0600031D062D072DF92C420803190B2D0C2D5D
:100A1600172DBA09BB09BC09BD09BA0A0319BB0AD5
:100A26000319BC0A0319BD0A0800F800780803195F
:100A36001D2D1E2D322DF31F212D222D322D700935
:100A4600FA007109FB007209FC007309FD00FA0A3D
:100A56000319FB0A0319FC0A0319FD0A3A2D730848
:100A6600FD007208FC007108FB007008FA007308AC
:100A7600720471047004031D412D422D4B2D00306C
:100A8600F3000030F2000030F1000030F000C12D1C
:100A96009630F900592D0130F4007408F907013039
:100AA600FD36FC0CFB0CFA0C890B532DFE307D0534
:100AB600031D5E2D5F2D4E2D732D0130F40074083D
:100AC600F9070130FA070030FB3D0030FC3D0030ED
:100AD600FD3D0130FD36FC0CFB0CFA0C890B6D2D2F
:100AE600FF307D05031D782D792D602D832D013076
:100AF600F9020130FA35FB0DFC0DFD0D890B7D2D3C
:100B0600FC1B862D872D8D2D0230790203188C2D26
:100B16008D2D7A2D7918902D912D992DFF30FA056E
:100B2600FF30FB057F30FC05FF30FD050310F90C97
:100B36007908F400F501F601F7011830F435F50DE2
:100B4600F60DF70D890BA12D7408FA047508FB0440
:100B56007608FC047708FD0478080319B32DB42D34
:100B6600B92DF31FB72DB82DB92DFD177D08F3004C
:100B76007C08F2007B08F1007A08F00008004001CA
:100B860023088039AD002335B300A21FCB2DCC2D11
:100B9600CD2D331433080319D12DD22DE12D330A6F
:100BA600031DD62DD72DDF2D0030A3000030A20067
:100BB6000030A1000030A000A217E92D0030A300EC
:100BC6000030A2000030A1000030A00027088039C4
:100BD600A8002808AD062735B200A61FF32DF42D70
:100BE600F52D321432080319F92DFA2D092E320A81
:100BF600031DFE2DFF2D072E0030A7000030A60096
:100C06000030A5000030A400A617112E0030A70062
:100C16000030A6000030A5000030A40032080319F9
:100C2600152E162E1B2E3308031D1A2E1B2E242EB0
:100C36000030A3000030A2000030A1000030A00068
:100C4600FC2F2008F00026088231C1228531710868
:100C56004001B9007008B8003808A800A901AA0127
:100C6600AB012B08B1002A08B0002908AF002808FC
:100C7600AE003908A800A901AA01AB012B08B700EC
:100C86002A08B6002908B5002808B4002108F00093
:100C960025088231C122853171084001B9007008EA
:100CA600B8003808A800A901AA01AB012808AE07B8
:100CB6002908AF3D2A08B03D2B08B13D3908A800E8
:100CC600A901AA01AB012808B4072908B53D2A08DD
:100CD600B63D2B08B73D2208F00024088231C12218
:100CE600853171084001B9007008B8003808A800BD
:100CF600A901AA01AB012808AE072908AF3D2A08B9
:100D0600B03D2B08B13D3908A800A901AA01AB01E5
:100D16002808B4072908B53D2A08B63D2B08B73D73
:100D26000830AE35AF0DB00DB10D890B942E2108EC
:100D3600F00024088231C122853171084001B900D2
:100D46007008B8003808AE073908AF3D0030B03D2E
:100D5600B13D2008F00025088231C1228531710895
:100D66004001B9007008B8003808AE073908AF3D31
:100D76000030B03DB13D0830AE35AF0DB00DB10D10
:100D8600890BBF2E2008F00024088231C12285314C
:100D960071084001B9007008B8003808AE07390874
:100DA600AF3D0030B03DB13D2108F000260882314C
:100DB600C122853171084001B9007008B8003808B1
:100DC600B4073908B53D0030B63DB73D2208F000FE
:100DD60025088231C122853171084001B9007008A9
:100DE600B8003808B4073908B53D0030B63DB73D00
:100DF6002208F00026088231C1228531710840019F
:100E0600B9007008B8003808A8003908A900AA0176
:100E1600AB010830A835A90DAA0DAB0D890B0D2F16
:100E26002808B4072908B53D2A08B63D2B08B73D62
:100E36002E08A8002F08A9003008AA003108AB0028
:100E46001830AB36AA0CA90CA80C890B242F28083D
:100E5600B4072908B53D2A08B63D2B08B73D08302A
:100E6600AE35AF0DB00DB10D890B332F33083207F8
:100E7600A800A901A90D2808823EB800FF30293D27
:100E8600B9005C2F0130B435B50DB60DB70D890B21
:100E9600462FB11F4F2F502F512F34140130AE352E
:100EA600AF0DB00DB10D890B522FFF30B807FF30D3
:100EB600B93DB61F5F2F602F452FB201B11F642FBA
:100EC600652F812FFF302E05A800FF302F05A900C2
:100ED600FF303005AA007F303105AB002B082A040D
:100EE600290428040319782F792F7C2FB201B20A1E
:100EF600812F341C7F2F802F812F792F32080319E1
:100F0600852F862FAE2F0130B4070030B53D003057
:100F1600B63D0030B73D371C912F922FAE2F3408C7
:100F2600A8003508A9003608AA003708AB0001302A
:100F3600AC00AB37AA0CA90CA80CAC0B9C2F2B0849
:100F4600B7002A08B6002908B5002808B400013001
:100F5600B8070030B93D3908803AA8008030280229
:100F6600031DB72FFF303802031CBA2FBB2FC52F26
:100F76007F304001B7008030B6000030B500003049
:100F8600B400F02F40013908803AA80080302802CA
:100F9600031DCF2F013038020318D22FD32FDE2F97
:100FA60000304001B7000030B6000030B500003018
:100FB600B400AD01F02F40013808B300FF30B4058E
:100FC600FF30B5057F30B6050030B705331CEC2F72
:100FD600ED2FEE2FB6173336B7002D08A8002808D8
:100FE600B7043708A3003608A2003508A100340864
:100FF600A0000800400184313D2C483465346C342F
:101006006C346F3420342134203449342034613434
:101016006D34203461342034503449344334203420
:06102600213420340034E7
:020000040001F9
:08000000FF3FFF3FFF3FFF3F00
:0A000E00EC3FFF3FFF3FFF3FFF3FC5
:00000001FF
