:08000000803102288731FD2F39
:100DC20064006300080043010C08C13920388C001C
:100DD2000800F00041010F1EEF2EF02EEB2E7008DE
:100DE2004C01970008004C019B161B159C159A1785
:100DF20019309800990111307B0191004001921243
:100E02000800F601172F7208F4007108F300760843
:100E12007307840074080318740A85000008863179
:100E2200EA2687310130F3007308F6077208F400EE
:100E32007108F30076087307840074080318740AB3
:100E420085001200031D262F272F042F08004001C2
:100E520092018631F42687318631E4268731FD01FD
:100E620040010C168631E12687310130FB007B08F8
:100E7200FD0740018C010030F1008830F20087311B
:100E8200022787317D088731622787310230FC00D3
:100E92004530FB00AA30890B4C2FFB0B4C2FFC0B6F
:100EA2004C2F40010C160230FC004530FB00AA30EA
:100EB200890B592FFB0B592FFC0B592F332F8031E4
:100EC20002284001A2006430F0000030F100220844
:100ED200F900FA017908F2007A08F30087319E27B7
:100EE200873170084001A3000A30F0000030F100A1
:100EF20023082202F200F301031CF30387319E2729
:100F0200873170084001A1002303FF3AF90021084C
:100F120079022207A0002308303E8631EA26873173
:100F220040012108303E8631EA26873140012008FF
:100F3200303E8631EA2687310800F601F11FA22FE2
:100F4200A32FAA2FF009F109F00A0319F10AF601F9
:100F5200F60AF31FAD2FAE2FB72FF209F309F20AEB
:100F62000319F30A0130F4007408F606F701F801D8
:100F7200700871040319BE2FBF2FEE2FF501F50A79
:100F8200CB2F0130F035F10D890BC32F0130F40066
:100F92007408F507F11FCE2FCF2FC22F0130F7357E
:100FA200F80D890BD02F71087302031DDA2F700818
:100FB2007202031CDD2FDE2FE32F7008F20271088C
:100FC200F33B77140130F136F00C890BE42F01303A
:100FD200F502031DED2FEE2FCF2F76080319F22F06
:100FE200F32FF82FF709F809F70A0319F80A780816
:100FF200F1007708F000080040018731282F4834BB
:1010020065346C346C346F342034213420344934E8
:10101200203461346D342034613420345034493406
:0A102200433420342134203400341C
:020000040001F9
:08000000FF3FFF3FFF3FFF3F00
:0A000E00EC3FFF3FFF3FFF3FFF3FC5
:00000001FF
