:0400000080312B28F8
:100008007E14803141018F1E0A280B282928503080
:100018007C020318102811281C287C08A03E8600A2
:1000280087014C01160881000130F0007008FC07B8
:100038004C011A1D2028212823289A139A179A1C44
:100048002628272829281A121A167E100900803116
:100058002D28FC01A0308400003085005030863106
:100068004E2680317E1040018331202B4001290823
:100078008039B3002935B900A81F432844284528EA
:1000880039143908031949284A285928390A031DF7
:100098004E284F2857280030A9000030A80000300B
:1000A800A7000030A600A81761280030A90000307A
:1000B800A8000030A7000030A6002D088039AE0047
:1000C8002E08B3062D35B800AC1F6B286C286D2898
:1000D800381438080319712872288128380A031D32
:1000E800762877287F280030AD000030AC0000303B
:1000F800AB000030AA00AC1789280030AD000030F2
:10010800AC000030AB000030AA00380803198D2875
:100118008E2893283908031D922893289C2800309C
:10012800A9000030A8000030A7000030A600742AFB
:100138002608F1002C08853182258031720840019B
:10014800BF007108BE003E08AE00AF01B001B101AA
:100158003108B7003008B6002F08B5002E08B400E3
:100168003F08AE00AF01B001B1013108BD00300851
:10017800BC002F08BB002E08BA002708F1002B0886
:1001880085318225803172084001BF007108BE00A8
:100198003E08AE00AF01B001B1012E08B4072F0828
:1001A800B53D3008B63D3108B73D3F08AE00AF0158
:1001B800B001B1012E08BA072F08BB3D3008BC3D7D
:1001C8003108BD3D2808F1002A0885318225803193
:1001D80072084001BF007108BE003E08AE00AF01C2
:1001E800B001B1012E08B4072F08B53D3008B63D5F
:1001F8003108B73D3F08AE00AF01B001B1012E088C
:10020800BA072F08BB3D3008BC3D3108BD3D08305A
:10021800B435B50DB60DB70D890B0C292708F100BB
:100228002A0885318225803172084001BF00710893
:10023800BE003E08B4073F08B53D0030B63DB73DA7
:100248002608F1002B08853182258031720840018B
:10025800BF007108BE003E08B4073F08B53D003036
:10026800B63DB73D0830B435B50DB60DB70D890BA1
:1002780037292608F1002A0885318225803172083D
:100288004001BF007108BE003E08B4073F08B53DF5
:100298000030B63DB73D2708F1002C08853182258E
:1002A800803172084001BF007108BE003E08BA07DD
:1002B8003F08BB3D0030BC3DBD3D2808F1002B0880
:1002C80085318225803172084001BF007108BE0067
:1002D8003E08BA073F08BB3D0030BC3DBD3D28087D
:1002E800F1002C0885318225803172084001BF0059
:1002F8007108BE003E08AE003F08AF00B001B10172
:100308000830AE35AF0DB00DB10D890B85292E081B
:10031800BA072F08BB3D3008BC3D3108BD3D340845
:10032800AE003508AF003608B0003708B100183005
:10033800B136B00CAF0CAE0C890B9C292E08BA074D
:100348002F08BB3D3008BC3D3108BD3D0830B435F1
:10035800B50DB60DB70D890BAB2939083807AE00B6
:10036800AF01AF0D2E08823EBE00FF302F3DBF000B
:10037800D4290130BA35BB0DBC0DBD0D890BBE2982
:10038800B71FC729C829C9293A140130B435B50D92
:10039800B60DB70D890BCA29FF30BE07FF30BF3D28
:1003A800BC1FD729D829BD29B801B71FDC29DD29E9
:1003B800F929FF303405AE00FF303505AF00FF30B6
:1003C8003605B0007F303705B100310830042F04FE
:1003D8002E040319F029F129F429B801B80AF929DA
:1003E8003A1CF729F829F929F12938080319FD29B0
:1003F800FE29262A0130BA070030BB3D0030BC3D3B
:100408000030BD3D3D1C092A0A2A262A3A08AE00BA
:100418003B08AF003C08B0003D08B1000130B20015
:10042800B137B00CAF0CAE0CB20B142A3108BD00BA
:100438003008BC002F08BB002E08BA000130BE07E8
:100448000030BF3D3F08803AAE0080302E02031DC9
:100458002F2AFF303E02031C322A332A3D2A7F30DE
:100468004001BD008030BC000030BB000030BA0045
:10047800682A40013F08803AAE0080302E02031DF2
:10048800472A01303E0203184A2A4B2A562A0030CE
:100498004001BD000030BC000030BB000030BA0095
:1004A800B301682A40013E08B900FF30BA05FF30A1
:1004B800BB057F30BC050030BD05391C642A652AA0
:1004C800662ABC173936BD003308AE002E08BD04B5
:1004D8003D08A9003C08A8003B08A7003A08A60068
:1004E80008004001A000200803197B2A7C2A902AD2
:1004F800F41F7F2A802A902A7109A2007209A3009A
:100508007309A4007409A500A20A0319A30A031910
:10051800A40A0319A50A982A7408A5007308A40058
:100528007208A3007108A2007408730472047104AD
:10053800031D9F2AA02AA92A0030F4000030F300E6
:100548000030F2000030F1001F2B9630A100B72ACE
:100558000130F5007508A1070130A536A40CA30CDD
:10056800A20C890BB12AFE302505031DBC2ABD2A21
:10057800AC2AD12A0130F5007508A1070130A2077D
:100588000030A33D0030A43D0030A53D0130A53624
:10059800A40CA30CA20C890BCB2AFF302505031D44
:1005A800D62AD72ABE2AE12A0130A1020130A23573
:1005B800A30DA40DA50D890BDB2AA41BE42AE52AAB
:1005C800EB2A023021020318EA2AEB2AD82A21183A
:1005D800EE2AEF2AF72AFF30A205FF30A3057F3065
:1005E800A405FF30A5050310A10C2108F500F601AC
:1005F800F701F8011830F535F60DF70DF80D890BF0
:10060800FF2A7508A2047608A3047708A4047808CA
:10061800A50420080319112B122B172BF41F152BD7
:10062800162B172BA5172508F4002408F300230818
:10063800F2002208F10008000B178B174001920105
:100648007D018C018531CE2583315030F100A030F9
:100658008531A52583318531E225833140010C158B
:1006680002304001CC004530CB00A930890B3A2B31
:10067800CB0B3A2BCC0B3A2B0032843164248331D8
:1006880040018C018631542683314001CE01FB3074
:10069800F8008530F9008531BA25833186315D2629
:1006A800833101304001CB004B08CE074E080319B7
:1006B8005E2B5F2B4B2BCE011330F8008630F900F0
:1006C8008531BA25833146304001A0008630A1002B
:1006D8002230A2008530A3001530A4008431032401
:1006E8008331003A031D792B7A2B7D2B84316424C6
:1006F80083318431AE2483314001CD002530A00000
:100708002530A1002330A2002330A3004D08A40007
:100718008431E52483314B2B80312B280310400191
:10072800420D430DFB007B08031D9B2B9C2BA52B27
:100738000030C3000030C2000030C1000030C000EB
:10074800022C4008C4004108C5004208C6004308FE
:10075800C7001F30C736C60CC50CC40C890BAE2B9E
:100768004408FA00C217FF30C005FF30C105FF304A
:10077800C2050030C3059630FB02FB1FC42BC52BF6
:10078800DD2B7B08803A973E0318CB2BCC2BCD2B47
:100798009C2B0130C336C20CC10CC00C890BCE2B6C
:1007A8000130C4004408FB07031DDB2BDC2BCD2BD9
:1007B800F22B20307B02031CE22BE32BED2B9C2B2E
:1007C8000130C035C10DC20DC30D890BE52B0130B9
:1007D800FB027B08031DF12BF22BE42B7A0803198B
:1007E800F62BF72B022CC009C109C209C309C00A9C
:1007F8000319C10A0319C20A0319C30A08005030B1
:10080800F100A0308531A5258431FC010D2C4C0167
:10081800160841018F1A112C122C0B2C4C011A129C
:100828001A164101991640012108F3002008F20028
:100838008531382584310A308631342684314001A7
:100848002408023EF800003003180130F900790846
:10085800803A803C031D322C78087C02031C352C1E
:10086800362C232CFA300032890B372C410199128F
:10087800FB015B2C2308F9002208F8007B087807A5
:10088800840079080318790A85000008FA007B08B3
:10089800A03E8600870101087A060319542C552CBE
:1008A800572C0030632C0130F8007808FB07400112
:1008B80024087B02031C612C622C3E2C01300800AA
:1008C8001330F8008630F9008531BA2584315A3062
:1008D8004001A0008630A1003E30A2008630A3006F
:1008E8000730A400843103248431003A031D7D2C91
:1008F8007E2C932C2930F2008630F3008531382580
:100908008431932C1A304001A6005E30A5006E3069
:10091800890B8C2CA50B8C2CA60B8C2C000046303C
:100928004001A0008630A1002230A2008530A3003B
:100938001530A400843103248431003A0319A52C0E
:10094800A62C862CEF30F2008530F300853138254F
:100958008431080086310726843172084001C900B5
:100968007108C8004808F1004908F200F301F401D1
:10097800003082317522843174084001AD0073085B
:10098800AC007208AB007108AA003D30A900C8305D
:10099800A8003230A7000D30A60080313A208431FB
:1009A80040012908C3002808C2002708C1002608FA
:1009B800C00083319223843140014008CA004A08AC
:1009C80008001E30F2008630F30085313825843166
:1009D8004001200885315E25843140012108853198
:1009E8005E2584314001220885315E25843140012D
:1009F800230885315E2584314001240885315E2530
:100A080084310A308631342684310730F8007D304D
:100A1800890B0C2DF80B0C2D0000080030343134F4
:100A28003234333434343534363437343834393472
:100A38004134423443344434453446342B344A3404
:100A48004F3449344E343A3420344A346F3469349C
:100A58006E3465346434203461346C3472346534F3
:100A68006134643479340034F7014D2D7308F5008E
:100A78007208F40077087407840075080318750A6B
:100A8800850000088631342685310130F400740869
:100A9800F7077308F5007208F400770874078400F4
:100AA80075080318750A85001200031D5C2D5D2D5D
:100AB8003A2D0800F3007308F2000430F236890B6F
:100AC800622D72080F39F4007408123E84008530D4
:100AD8000318013E850000088631342685317308E5
:100AE8000F39F4007408123E840085300318013E63
:100AF800850000088631342685310800F900F501A3
:100B0800F6017108F300F4017308F7007408F8009F
:100B1800791C8F2D902D942D7708F5077808F63DD0
:100B28000130F735F80D890B952D0310F90C79086C
:100B3800031D9F2DA02D8C2D7608F2007508F1005D
:100B48000800F300F401B32D74087307F20072086B
:100B58008600870181010130F2007208F4077108EC
:100B68007402031CB82DB92DA82D08007908F300CC
:100B78007808F2008531382585310A3086313426E7
:100B880085310730FA007D30890BC82DFA0BC82D46
:100B9800000008004C019C151B129B161B151A1609
:100BA8009A1719309800990111307B01910004308F
:100BB8007C01C30040019212121608004001121471
:100BC8007D010C147A019F01AB0126162608F33922
:100BD8000438A600080043346F346E346E3465342C
:100BE800633474346534643420342134003441343B
:100BF80054342B344C344F34573450344F345734E6
:100C08004534523400347A01A617261426180D2EBE
:100C18000E2E0A2E1E08F2001D08F1000800573497
:100C280061346B34653420347534703420342134A5
:100C380021340034413454342B344D345334473444
:100C48004834453458343D340034523458342F3401
:100C58005434583420344634613469346C340034A4
:100C6800F10041010F1E392E3A2E352E71084C0124
:100C7800970008002B34413454343A3420344F342C
:100C88004B340034413454342B344A344F344934CF
:100C98004E340034640080010131890B4F2E00343A
:100CA80043010C08C13920388C0008004134543401
:080CB800003464006300080031
:020000040001F9
:08000000FF3FFF3FFF3FFF3F00
:0A000E00EC3FFF3FFF3FFF3FFF3FC5
:00000001FF
