:08000000803102288731FD2F39
:100E18008731392787314D01111408008731392767
:100E280087314D011115080043010C08C1392038DC
:100E38008C000800F00087313927873170084D0190
:100E48008C0008002030F1000B30F2002730873189
:100E5800CF2787310800F00041010F1E342F352FAE
:100E6800302F70084C01970008004D010F193D2FD5
:100E78003E2F392F11081139031D432F442F392FC5
:100E880008004C019B161B159C159A1719309800E1
:100E9800990111307B0191004001921208008731BD
:100EA800392787314D01911540018C018731392748
:100EB800873140010C164D010C08F00087313927A5
:100EC80087314D01911211167008080040019214E3
:100ED80012157D018E140E1515307B018D0016300C
:100EE8008E0001307C01C7000230C8004D018F1709
:100EF8001008F03908389000910103308D009016E1
:100F08000800400192017D018C0187316A278731F1
:100F180087314527873187311827873140010C16DB
:100F28000030F1008830F2008731A92787318731F6
:100F380026278731A330F7005530890BA12FF70BEF
:100F4800A12F0000942F80310228F601BE2F7208CD
:100F5800F4007108F3007608730784007408031816
:100F6800740A8500000887312F2787310130F30084
:100F78007308F6077208F4007108F300760873071F
:100F8800840074080318740A85001200031DCD2F0D
:100F9800CE2FAB2F0800F60087310C278731763526
:100FA800FE39F6007608013887311E278731F401AB
:100FB800F501EC2F74087107F300730886008701A8
:100FC80087315327873181000130F4070030F53D20
:100FD8007508803AF30080307302031DF52F7208FC
:100FE8007402031CF82FF92FDE2F8731122787315F
:100FF800080040018731852F483465346C346C34DF
:101008006F342034213420344934203461346D3431
:10101800203461342034503449344334203421346A
:04102800203400343C
:020000040001F9
:08000000FF3FFF3FFF3FFF3F00
:0A000E00EC3FFF3FFF3FFF3FFF3FC5
:00000001FF
