:0400000080312B28F8
:100008007E14803141018F1E0A280B282928503080
:100018007C020318102811281C287C08A03E8600A2
:1000280087014C01160881000130F0007008FC07B8
:100038004C011A1D2028212823289A139A179A1C44
:100048002628272829281A121A167E100900803116
:100058002D28FC01A030840000308500503081310B
:10006800EA2180317E1040018031E5285030F100CE
:10007800A030813157218031FC0144284C011608F9
:1000880041018F1A4828492842284C011A121A1689
:100098004101991640012108F3002008F20081313E
:1000A8001B2180310A308131D02180314001240860
:1000B800023EF800003003180130F9007908803A50
:1000C800803C031D692878087C02031C6C286D2875
:1000D8005A28FA300032890B6E2841019912FB0127
:1000E80092282308F9002208F8007B087807840082
:1000F80079080318790A85000008FA007B08A03EF1
:100108008600870101087A0603198B288C288E2817
:1001180000309A280130F8007808FB0740012408CD
:100128007B02031C98289928752801300800BA30EA
:10013800F8008130F90081316C218031F6304001BE
:10014800A0008130A100DA30A2008130A30007307E
:10015800A40080313A208031003A031DB428B52824
:10016800CA28C530F2008130F30081311B2180316B
:10017800CA281A304001A6005E30A5006E30890BEF
:10018800C328A50BC328A60BC3280000E2304001F2
:10019800A0008130A1004130A2008130A3001530B9
:1001A800A40080313A208031003A0319DC28DD2888
:1001B800BD28AE30F2008130F30081311B2180313F
:1001C80008000B178B17400192017D018C018131CA
:1001D800802180315030F100A030813157218031A9
:1001E8008131A121803140010C1502304001A80065
:1001F8004530A700A930890BFF28A70BFF28A80BBB
:10020800FF28003280319B20803140018C018131F0
:10021800F02180318131F92180319430F80081302A
:10022800F90081316C2180310E2980312B28F701AA
:1002380030297308F5007208F40077087407840001
:1002480075080318750A850000088131D0218131AD
:100258000130F4007408F7077308F5007208F40019
:1002680077087407840075080318750A850012005A
:10027800031D3F2940291D2908002B344A344F34D7
:1002880049344E343A3420344A346F3469346E3445
:1002980065346434203461346C34723465346134C8
:1002A800643479340034F300F40165297408730761
:1002B800F20072088600870181010130F20072089D
:1002C800F40771087402031C6A296B295A2908006B
:1002D8007908F3007808F20081311B2181310A3056
:1002E8008131D02181310730FA007D30890B7A299C
:1002F800FA0B7A29000008004C019C151B129B166A
:100308001B151A169A1719309800990111307B019C
:10031800910004307C01C3004001921212160800BB
:10032800413454342B344D34533447343D346834D9
:1003380065346C346C346F340034400112147D0120
:100348000C147A019F01AB0126162608F3390438EC
:10035800A600080043346F346E346E346534633459
:1003680074346534643420342134003457346134AF
:100378006B3465342034753470342034213421349E
:100388000034523458342F345434583420344634DA
:10039800613469346C340034F10041010F1ED529F1
:1003A800D629D12971084C01970008002B34413413
:1003B80054343A3420344F344B34003441345434B8
:1003C8002B344A344F3449344E34003464008001AD
:1003D8000131890BEB29003443010C08C13920385D
:1003E8008C00080041345434003464006300080071
:020000040001F9
:08000000FF3FFF3FFF3FFF3F00
:0A000E00EC3FFF3FFF3FFF3FFF3FC5
:00000001FF
