:0400000080313828EB
:100008007E14803141018F1E0A280B282928503080
:100018007C020318102811281C287C08A03E8600A2
:1000280087014C01160881000130F0007008FC07B8
:100038004C011A1D2028212823289A139A179A1C44
:100048002628272829281A121A1641010F1F2D2899
:100058002E2836284D010F1D322833283628F13036
:100068008C0010167E10090080313A28FC01A0305F
:1000780084000030850050308631A72680317E10FC
:10008800400183312D2B400129088039B3002935DF
:10009800B900A81F502851285228391439080319C3
:1000A800562857286628390A031D5B285C286428C7
:1000B8000030A9000030A8000030A7000030A600DA
:1000C800A8176E280030A9000030A8000030A7004B
:1000D8000030A6002D088039AE002E08B3062D3555
:1000E800B800AC1F782879287A28381438080319FA
:1000F8007E287F288E28380A031D832884288C2888
:100108000030AD000030AC000030AB000030AA0079
:10011800AC1796280030AD000030AC000030AB00C2
:100128000030AA00380803199A289B28A028390803
:10013800031D9F28A028A9280030A9000030A80086
:100148000030A7000030A600812A2608F1002C08FC
:100158008531C525803172084001BF007108BE0095
:100168003E08AE00AF01B001B1013108B700300858
:10017800B6002F08B5002E08B4003F08AE00AF0146
:10018800B001B1013108BD003008BC002F08BB0028
:100198002E08BA002708F1002B088531C5258031C3
:1001A80072084001BF007108BE003E08AE00AF01F2
:1001B800B001B1012E08B4072F08B53D3008B63D8F
:1001C8003108B73D3F08AE00AF01B001B1012E08BC
:1001D800BA072F08BB3D3008BC3D3108BD3D280893
:1001E800F1002A088531C525803172084001BF0019
:1001F8007108BE003E08AE00AF01B001B1012E0883
:10020800B4072F08B53D3008B63D3108B73D3F0863
:10021800AE00AF01B001B1012E08BA072F08BB3DEF
:100228003008BC3D3108BD3D0830B435B50DB60DBC
:10023800B70D890B19292708F1002A088531C5252A
:10024800803172084001BF007108BE003E08B40743
:100258003F08B53D0030B63DB73D2608F1002B08F4
:100268008531C525803172084001BF007108BE0084
:100278003E08B4073F08B53D0030B63DB73D0830ED
:10028800B435B50DB60DB70D890B44292608F10014
:100298002A088531C525803172084001BF007108E0
:1002A800BE003E08B4073F08B53D0030B63DB73D37
:1002B8002708F1002C088531C525803172084001D6
:1002C800BF007108BE003E08BA073F08BB3D0030BA
:1002D800BC3DBD3D2808F1002B088531C52580317E
:1002E80072084001BF007108BE003E08BA073F0807
:1002F800BB3D0030BC3DBD3D2808F1002C088531D0
:10030800C525803172084001BF007108BE003E0853
:10031800AE003F08AF00B001B1010830AE35AF0DF7
:10032800B00DB10D890B92292E08BA072F08BB3DD5
:100338003008BC3D3108BD3D3408AE003508AF007B
:100348003608B0003708B1001830B136B00CAF0C21
:10035800AE0C890BA9292E08BA072F08BB3D300817
:10036800BC3D3108BD3D0830B435B50DB60DB70DEF
:10037800890BB82939083807AE00AF01AF0D2E0830
:10038800823EBE00FF302F3DBF00E1290130BA3563
:10039800BB0DBC0DBD0D890BCB29B71FD429D529A1
:1003A800D6293A140130B435B50DB60DB70D890B01
:1003B800D729FF30BE07FF30BF3DBC1FE429E52920
:1003C800CA29B801B71FE929EA29062AFF303405E6
:1003D800AE00FF303505AF00FF303605B0007F3086
:1003E8003705B100310830042F042E040319FD2904
:1003F800FE29012AB801B80A062A3A1C042A052A45
:10040800062AFE29380803190A2A0B2A332A01303A
:10041800BA070030BB3D0030BC3D0030BD3D3D1C3F
:10042800162A172A332A3A08AE003B08AF003C08C0
:10043800B0003D08B1000130B200B137B00CAF0CCC
:10044800AE0CB20B212A3108BD003008BC002F08C1
:10045800BB002E08BA000130BE070030BF3D3F0880
:10046800803AAE0080302E02031D3C2AFF303E0247
:10047800031C3F2A402A4A2A7F304001BD008030B1
:10048800BC000030BB000030BA00752A40013F08AC
:10049800803AAE0080302E02031D542A01303E02FD
:1004A8000318572A582A632A00304001BD0000303B
:1004B800BC000030BB000030BA00B301752A40010F
:1004C8003E08B900FF30BA05FF30BB057F30BC05D8
:1004D8000030BD05391C712A722A732ABC173936B7
:1004E800BD003308AE002E08BD043D08A9003C0835
:1004F800A8003B08A7003A08A60008004001A00091
:1005080020080319882A892A9D2AF41F8C2A8D2AF3
:100518009D2A7109A2007209A3007309A400740935
:10052800A500A20A0319A30A0319A40A0319A50A14
:10053800A52A7408A5007308A4007208A30071080E
:10054800A2007408730472047104031DAC2AAD2A56
:10055800B62A0030F4000030F3000030F20000301A
:10056800F1002C2B9630A100C42A0130F500750843
:10057800A1070130A536A40CA30CA20C890BBE2A36
:10058800FE302505031DC92ACA2AB92ADE2A0130E8
:10059800F5007508A1070130A2070030A33D00301F
:1005A800A43D0030A53D0130A536A40CA30CA20C37
:1005B800890BD82AFF302505031DE32AE42ACB2A14
:1005C800EE2A0130A1020130A235A30DA40DA50D1C
:1005D800890BE82AA41BF12AF22AF82A0230210200
:1005E8000318F72AF82AE52A2118FB2AFC2A042BE3
:1005F800FF30A205FF30A3057F30A405FF30A50515
:100608000310A10C2108F500F601F701F8011830D4
:10061800F535F60DF70DF80D890B0C2B7508A204AE
:100628007608A3047708A4047808A5042008031909
:100638001E2B1F2B242BF41F222B232B242BA51717
:100648002508F4002408F3002308F2002208F1002A
:1006580008000B178B17400192017D018C01853131
:10066800E82583317108720403193B2B3C2B412B7D
:1006780030308531A1258331402B863127268331BF
:100688005030F100A0308531FE25833186313B267C
:10069800833140010C1502304001CC004530CB00BD
:1006A800A930890B552BCB0B552BCC0B552B003276
:1006B80084318324833140018C018631AD26833116
:1006C8004001CE015430F8008630F90086311326F7
:1006D80083318631B626833101304001CB004B0887
:1006E800CE074E080319792B7A2B662BCE016C3076
:1006F800F8008630F9008631132683319F30400197
:10070800A0008630A1004130A2008530A30015303A
:10071800A400843122248331003A031D942B952BA5
:100728009C2B40010C1584318324833140018C01BA
:100738008431CD2483314001CD002530A0002530FF
:10074800A1002330A2002330A3004D08A400853166
:1007580004258331662B8031382803104001420D6F
:10076800430DFB007B08031DBA2BBB2BC42B0030A9
:10077800C3000030C2000030C1000030C000212C8E
:100788004008C4004108C5004208C6004308C70025
:100798001F30C736C60CC50CC40C890BCD2B4408BA
:1007A800FA00C217FF30C005FF30C105FF30C2058F
:1007B8000030C3059630FB02FB1FE32BE42BFC2B18
:1007C8007B08803A973E0318EA2BEB2BEC2BBB2BCC
:1007D8000130C336C20CC10CC00C890BED2B0130A3
:1007E800C4004408FB07031DFA2BFB2BEC2B112C30
:1007F80020307B02031C012C022C0C2CBB2B01305B
:10080800C035C10DC20DC30D890B042C0130FB028C
:100818007B08031D102C112C032C7A080319152CA6
:10082800162C212CC009C109C209C309C00A031921
:10083800C10A0319C20A0319C30A08005030F1009B
:10084800A0308531FE258431FC012C2C4C01160882
:1008580041018F1A302C312C2A2C4C011A121A16ED
:100868004101991640012108F3002008F200853162
:10087800572584310A3086318D2684314001240879
:10088800023EF800003003180130F9007908803A78
:10089800803C031D512C78087C02031C542C552CD9
:1008A800422CFA300032890B562C41019912FB0177
:1008B8007A2C2308F9002208F8007B0878078400BE
:1008C80079080318790A85000008FA007B08A03E19
:1008D8008600870101087A060319732C742C762C7C
:1008E8000030822C0130F8007808FB07400124080A
:1008F8007B02031C802C812C5D2C013008006C309D
:10090800F8008630F900863113268431B33040016F
:10091800A0008630A1009730A2008630A3000730DF
:10092800A400843122248431003A031D9C2C9D2C80
:10093800B22C8230F2008630F3008531572584319D
:10094800B22C1A304001A6005E30A5006E30890B2B
:10095800AB2CA50BAB2CA60BAB2C00009F30400199
:10096800A0008630A1004130A2008530A3001530D8
:10097800A400843122248431003A0319C42CC52CE4
:10098800A52C4830F2008630F30085315725843194
:10099800080086316026843172084001C900710858
:1009A800C8004808F1004908F200F301F4010030DA
:1009B80082318222843174084001AD007308AC0092
:1009C8007208AB007108AA003D30A900C830A80021
:1009D8003230A7000D30A600803147208431400115
:1009E8002908C3002808C2002708C1002608C0003B
:1009F8008331B123843140014008CA004A08080005
:100A08007730F2008630F300853157258531400173
:100A1800200885317D2585314001210885317D25D6
:100A280085314001220885317D2585314001230823
:100A380085317D2585314001240885317D25853125
:100A48000A3086318D2685310730F8007D30890BD4
:100A58002B2DF80B2B2D00000800303431343234A4
:100A68003334343435343634373438343934413423
:100A7800423443344434453446342B344A344F34B6
:100A880049344E343A3420344A346F3469346E343D
:100A980065346434203461346C34723465346134C0
:100AA800643479340034F7016C2D7308F50072084A
:100AB800F40077087407840075080318750A850020
:100AC800000886318D2685310130F4007408F70757
:100AD8007308F5007208F400770874078400750835
:100AE8000318750A85001200031D7B2D7C2D592DD6
:100AF8000800F3007308F2000430F236890B812DE8
:100B080072080F39F4007408313E840085300318E8
:100B1800013E8500000886318D26853173080F391E
:100B2800F4007408313E840085300318013E8500C6
:100B3800000886318D2685310800F10040019214A5
:100B480012157D018E140E1515307B018D0016309F
:100B58008E0001307C01C7000230C8004D018F179C
:100B68001008F039063890001114121571088D001C
:100B7800901641018F130F13991719170B178B171D
:100B88000800F900F501F6017108F300F401730893
:100B9800F7007408F800791CD22DD32DD72D7708CB
:100BA800F5077808F63D0130F735F80D890BD82D93
:100BB8000310F90C7908031DE22DE32DCF2D7608DB
:100BC800F2007508F10008004001921412118C1807
:100BD800EE2DEF2DFB2D0C11F22D0C158C1CF52D87
:100BE800F62DF12D0130F1000030F200FD2DF1015C
:100BF800F2010800F300F4010C2E74087307F200E8
:100C080072088600870181010130F2007208F4073A
:100C180071087402031C112E122E012E0800790887
:100C2800F3007808F2008531572586310A3086317D
:100C38008D2686310730FA007D30890B212EFA0B7C
:100C4800212E000008004C019C151B129B161B1539
:100C58001A169A1719309800990111307B019100E2
:100C680004307C01C30040019212121608004001B2
:100C780012147D010C147A019F01AB012616260877
:100C8800F3390438A600080043346F346E346E34E8
:100C98006534633474346534643420342134003466
:100CA800413454342B344C344F34573450344F344B
:100CB80057344534523400347A01A61726142618BE
:100CC800662E672E632E1E08F2001D08F10008002C
:100CD800573461346B3465342034753470342034BF
:100CE800213421340034413454342B344D345334BA
:100CF80047344834453458343D3400345234583439
:100D08002F345434583420344634613469346C34C4
:100D18000034F10041010F1E922E932E8E2E710881
:100D28004C01970008002B34413454343A342034B1
:100D38004F344B340034413454342B344A344F3418
:100D480049344E340034640080010131890BA82EE7
:100D5800003443010C08C13920388C0008004134A4
:0A0D680054340034640063000800F6
:020000040001F9
:08000000FF3FFF3FFF3FFF3F00
:0A000E00EC3FFF3FFF3FFF3FFF3FC5
:00000001FF
